:020000000C945E
:10000200CC060C9400000C9400000C9400000C949C
:1000120000000C9400000C9400000C9400000C945E
:1000220000000C9400000C9400000C9400000C944E
:1000320000000C9400000C9400000C9400000C943E
:1000420000000C9400000C9400000C9400000C942E
:1000520000000C9400000C9400000C9400000C941E
:1000620000000C9400000507206000000000000062
:10007200005F00000007000700147F147F14242A89
:100082007F2A122313086462364955225000050361
:100092000000001C2241000041221C00082A1C2AE8
:1000A2000808083E08080050300000080808080840
:1000B200003030000020100804023E5149453E0045
:1000C200427F400042615149462141454B3118145B
:1000D200127F1027454545393C4A4949300171098B
:1000E20005033649494936064949291E0036360074
:1000F200000056360000000814224114141414148F
:1001020041221408000201510906324979413E7E1A
:100112001111117E7F494949363E414141227F41B9
:1001220041221C7F494949417F090901013E414160
:1001320051327F0808087F00417F41002040413F43
:10014200017F081422417F404040407F0204027F29
:100152007F0408107F3E4141413E7F090909063E66
:100162004151215E7F091929464649494931010118
:100172007F01013F4040403F1F2040201F7F201849
:10018200207F631408146303047804036151494512
:100192004300007F4141020408102041417F0000DA
:1001A20004020102044040404040000102040020D9
:1001B200545454787F4844443838444444203844A2
:1001C20044487F3854545418087E090102081454D4
:1001D200543C7F0804047800447D40002040443DA4
:1001E20000007F10284400417F40007C04180478FE
:1001F2007C0804047838444444387C1414140808F5
:100202001414187C7C080404084854545420043FF5
:100212004440203C4040207C1C2040201C3C40307C
:10022200403C44281028440C5050503C4464544CE8
:1002320044000836410000007F00000041360800FB
:1002420002010204027F4141417F5400300000005C
:100252000000000000000000000000000000003C60
:100262003CECFCB0F0B03030B0B0B030B0B0ECEC40
:100272003C3C000000000000000000000000000004
:10028200000000000000000000000000000000006C
:10029200000000000000000000000000000000005C
:1002A200000000000000000000000000000000004C
:1002B200008080FFFFBAB876FFFCFAFEFFFBFFFF6B
:1002C200FFDBFEFDFFFF8080000000000000000059
:1002D200009C9EFFFF3FBFBEFCECECECECEEF8B8DE
:1002E200F8F8E0E0E0E0808000000000000000009C
:1002F20000000000000000000000000000000000FC
:10030200000000E0E0FF1FFDFAFFFFFDFFFFFFDF3F
:10031200DFDFFFE7FFFDFFFEFFFFFFFF60606060C2
:100322009838985EE6F779FDFAF6F7FFFFFFFFFFD0
:10033200FFEFFFFFFFFDFFFFFEFFFDFFFEFEF820C8
:1003420000000000000000000000000000000000AB
:100352000000000000E0F0FFDFFFFBFFFFFFFFFFF8
:10036200FFFFFFFFFFFFFFFFFF5F5F9749B9A9ADE7
:10037200ADECF6D393F3FDFDFFFFF7FFFFFFFFFFA9
:10038200FFFFFFFFFFFFFFFFFFFF3F3F0F0F0F0FBB
:100392000303000000000000000000000000000055
:1003A2000000000000000000001F3FFFFEFFFFFFF3
:1003B200FFFFFF7F7F7F7F7FFFFFFFC0FEFEF9FD14
:1003C200BE7CFEFFFFFFFEFEFFFFFFFFFFFFFFFF02
:1003D200FFFFFF7F7F3F3FFEFFFFFFFF03030000A2
:1003E200000000000000000000000000000000000B
:1003F20000000000000000000000000000000001FA
:1004020001010101010101000000000002071F1F9C
:100412007F7F7F7F7F7F7F7F7F7F7F7F7F7F7F7FEA
:100422007F7F7F7979010100000000070F1F1F1FE6
:100432001E1C000000000000000000000000000080
:1004420000000000000054003000000000808060C6
:10045200606080800000000000806060800000E03A
:10046200E0E00000000000E0E0E000000000E060EA
:10047200606060600000E08080000000E0E000005A
:1004820000E0E0606060600000808060606080008A
:1004920000606060E0E0606060000000000000005A
:1004A200007F7F808C8CFCFC00E0E01C1C13101091
:1004B2001FE0E0FFFF007F7F807F7F0000FF0000E2
:1004C2000000FF8C8C8C80800000FF03030C707096
:1004D200FFFF000000FFFF8C8C8C80000063638CA8
:1004E2008C8C700000000000FFFF00000000000084
:1004F20000000000000000010101010100010100F3
:1005020000000000000101010100000001000000E4
:1005120000010000000001010101010100000100D1
:1005220000000000010100000001010101010100C1
:1005320000000001010100000000000001010000B4
:1005420000000000000000000000000000000000A9
:100552000000000000000000000000000000000099
:10056200000000000000F0F03030303030C00000F9
:100572000000C03030C000000000F00000000000A9
:100582000000000000000000000000000000000069
:100592000000000000000000000000000000000059
:1005A2000000000000000000000000000000000049
:1005B20000000000000000000000FFFF0606060623
:1005C2000601F0F00E0E0908080FF0F00000FF001F
:1005D2000000000000000000000000000000000019
:1005E2000000000000000000000000000000000009
:1005F20000000000000000000000000000000000F9
:1006020000000000000000000000000000000000E8
:1006120000000000000000000000000000000000D8
:1006220000000000000000000000000000000000C8
:1006320000000000000000000000000000000000B8
:100642000000540030000000000000000000000024
:100652000000000000000000000000000000000098
:10066200000000000000000080806060F8F8E0E018
:100672008080000000000000000000000000000078
:100682000000000000000000000000000000000068
:100692000000000000000000000000000000000058
:1006A200000000000000008080E0E0E0E0E0E0E028
:1006B200E0E0E0E01898989898989898FFFFE0F0AA
:1006C2009F9FFFFFFFFFF898989898989898E0E00E
:1006D200E0E0E0E0E0E0E0E0E08080000000000038
:1006E2000000000000000000000000000000000008
:1006F200000000000000000000000007071F1F1B91
:100702001F1F1F1F1F1F6F7F7B7F6F7FFFFFFFFF5B
:10071200FFFF3F3FFFFCFFFFFFFFFFEFFFFF7F6F8A
:100722007F7B7F6F7F1F1F1F1F1F1F1B1F0707005E
:1007320000000000000000000000000000000000B7
:1007420000000000000000000000000000000000A7
:100752000000000000000000000000000000000097
:10076200010101010707F8F8FFBFFFFF0F0F0301A7
:100772000101000000000000000000000000000075
:100782000000000000000000000000000000000067
:100792000000000000000000000000000000000057
:1007A2000000000000000000000000000000000047
:1007B200000000000000C0C0C0C0FFFF0F0FFFFF1D
:1007C200C0C0C0C000000000000000000000000027
:1007D2000000000000000000000000000000000017
:1007E2000000000000000000000000000000000007
:1007F20000000000000000000000000000000000F7
:1008020000000000000000000F0F0F0F0F0F0F0F6E
:100812003F3F0F0F0F0F0F0F0F0F000000000000E0
:1008220000000000000000000000000000000000C6
:100832000000000000000000000000000000540062
:10084200300000000000000080808080E0E0E0E0F6
:10085200000000000000008080E0E0E0E0E0E0E076
:10086200E08080000000000000000000000000E0C6
:10087200E0E0E0E0E0E0E0E0E0000000000000E0B6
:10088200E0E0E0E0E0E0E0E0E0E0E0E0E0E0000026
:1008920000000000000000007E7E7E7E7F7FFFFF62
:1008A200FFFFFFFF000000000000FEFFFFFFFF014F
:1008B200010101FFFFFFFFFEFE000000000000003B
:1008C20000F8F8FFFFFFFFFFFFFFFFFFFF00000040
:1008D200000000FFFFFFFFFF010181818181818113
:1008E2000101000000000000000000000000000004
:1008F2000000FFFFFFFFFFFF000000000000FFFFFE
:10090200FFFFFF00000000FFFFFFFFFFFF000000EE
:10091200000000F8F8FFFFFFFF0101FFFFFFFFFFEC
:10092200FF000000000000FFFFFFFFFF06060707B1
:10093200FFFFFFFFFEFE00000000000000000000BD
:10094200000000000000FFFFFFFFFFFF00000000AB
:1009520000000F7F7F7F7F7C7C7C7CFFFFFFFFFF9F
:10096200FF00000000FCFCFFFFFFFFF0F0F0F0FFD3
:10097200FFFFFFFFFFF0F000000000F0F0F0F0F0EA
:1009820000000000FFFFFFFFFFFF0000000000006B
:1009920000000000000000000000FFFFFFFFFFFF5B
:1009A2000000000000007EFEFEFEFE80808080FFD0
:1009B200FFFFFF7F7F000000000707070707070709
:1009C200070707FFFFFFFFFFFF0707000000007F89
:1009D2007FFFFFFF80808080FFFFFFFF7F7F00009F
:1009E20000000000000000000000000000000707F7
:1009F20007070707000000000000000101070707C2
:100A020007070707070101000000000000000000BF
:100A120000000000000000070707070707000000AA
:100A22000000000000010707070707070707010189
:100A32000000000000000000000054003000000030
:100A420000000000008080808080808080808000A4
:100A52000000000000000000000000008080000094
:100A62000000000000000000808000000000000084
:100A72000000000000000080800000000000808074
:100A820080808080808080808080800000000000E4
:100A920000000000000000CECE0101010101313151
:100AA200313131B2B2B20000000000C0C04E4E4E31
:100AB20043434C4C4CC0C00000000000FFFF020248
:100AC2000270700000000000020202FFFF0000003E
:100AD2000000FFFFFF31313131313131313131002D
:100AE20000000000000000000000000101060606F0
:100AF20006060606060606010101000006060601B4
:100B020001000000000000000001010606060000CE
:100B120007070000000000060606000000000007AC
:100B2200070000000000070707060606060606067D
:100B32000606060000000000000000000000008021
:100B420080606060606060606060608080800000E3
:100B52006060608080000000000000000080806013
:100B620060600000E0E06060606060606060606043
:100B72000000000000E0E0E060606060606060E053
:100B8200E0E00000000000000000000000000000A3
:100B92000000004141808080808080808080804190
:100BA200414100000000000303707070808070708B
:100BB2007003030000000000FFFF8C8C8C8C8C8C77
:100BC2008C8C8C8C0000000000FFFFFF0C0C0C0CC6
:100BD2000C3C3CCFCFCF0000000000000000000022
:100BE20000000000000000000001010101010101FC
:100BF20001010100000000000000000000000000F0
:100C020001010000000000000000000001010101DC
:100C120001010101010101010000000000010101C7
:100C220000000000000000010101000000000000BF
:100C3200000000000000000103070F1F3F7FFF00BC
:100C42001027E80364000A000100001000011000F0
:100C5200010003030302020C000800010006040065
:100C620049000A0D004400610041004C4544312016
:100C7200656E63656E6469646F0A0D004C454431AC
:100C8200204170616761646F0A0D004C4544322057
:100C9200656E63656E6469646F0A0D004C4544328B
:100CA200206170616761646F0A0D004C4544332016
:100CB200656E63656E6469646F0A0D004C4544336A
:100CC200206170616761646F0A0D004C45443420F5
:100CD200656E63656E6469646F0A0D004C45443449
:100CE200206170616761646F0A0D005374720A0DAE
:100CF200004573630A0D004A6D700A0D0053686F58
:100D02000A0D000001002D4E414E00494E460000E2
:100D12000100DC03600C02000003620C030002030A
:100D2200640C02000503670C03000703640C020055
:100D32000A03690C03000C03640C02000F036B0C22
:100D420003001103640C110014036D0C0F00250342
:100D52007E0C110034038D0C0F0045039E0C110014
:100D62005403AD0C0F006503BE0C11007403CD0CCF
:100D72000F008503DE0C06009403ED0C06009A03B7
:100D8200F30C0600A003F90C0600A603FF0C0100F9
:100D9200D905060D0000F894EE27EFBBF1E0F5BF90
:100DA200E5BF8DE0A2E0BB27ED938A95E9F780E0ED
:100DB20098E0A0E0B1E0ED930197E9F7E2E1FDE010
:100DC20085919591009761F0A591B5910590159047
:100DD200BF01F00105900D920197E1F7FB01F0CF01
:100DE200E0E0EEBBEFEFEDBFE8E0EEBFC0E0D3E046
:100DF2000C943907E091C000E07819F0E091C60048
:100E02000895E0E008950895AA93E091C000E07289
:100E1200E1F30C94E80CBA93AA93A881B981EC91FE
:100E2200E03041F0AC91F0DFE881F9813196E8835E
:100E3200F983F3CF22960895AA93E881E064E093C0
:100E42007C0083E08A95F1F7E0917A00E064E09318
:100E52007A00E0917A00E071E1F3E0917A00E061DA
:100E6200E0937A00E0917800F09179000C94EB0C19
:100E72002897E8E6F0E0E883F983E0E0EA83EB8391
:100E8200EC83ED83EE81EC7FEE83E37EEC60EE8318
:100E9200EF81E078E263EF83DE013BD20E94EA0E4B
:100EA2000E94EE0EA8EEB3E00E94880F0E94EA0EA6
:100EB200ECE4F2E00E94F50EE3E0E0937E00E0E471
:100EC200E0937C00E3E8E0937A00E0E0E0937B00CB
:100ED200E2E0E093C000E8E1E093C100E6E0E093E5
:100EE200C200E0E0E093C500E1E1E093C400E0E885
:100EF200E0936100E0E0E0936100459A449A439AEE
:100F0200429A579A569A229A209A559AE091D80371
:100F1200F091D903309721F40E94EA0E0E94EE0E5E
:100F2200A0E08ADFE093CA03F093CB03A1E084DF61
:100F3200E093CC03F093CD03A091CA03B091CB030D
:100F4200AC32E1E0BE0730F4A0E0B3E064DFA2E03F
:100F5200B3E00DC0A091CA03B091CB03AD3BE2E078
:100F6200BE0730F0A5E0B3E056DFA7E0B3E053DF01
:100F7200A091CC03B091CD03AC32E1E0BE0730F4D6
:100F8200AAE0B3E048DFACE0B3E00DC0A091CC032F
:100F9200B091CD03AD3BE2E0BE0730F0AFE0B3E08D
:100FA2003ADFA1E1B3E037DFE091C000E07809F475
:100FB200D5C020DFE093DE03A091DE03A13310F061
:100FC200A53308F083C0E091DE03F0E0E133A0E056
:100FD200FA07D9F4E091CE03F091CF03309759F498
:100FE200A4E1B3E018DF289AE1E0F0E0E093CE0359
:100FF200F093CF0309C0A5E2B3E00DDFE0E0E09398
:10100200CE03E093CF0328985CC0E233A0E0FA0756
:10101200D9F4E091D003F091D103309759F4A4E3CD
:10102200B3E0F9DE2A9AE1E0F0E0E093D003F09336
:10103200D10309C0A5E4B3E0EEDEE0E0E093D00323
:10104200E093D1032A983DC0E333A0E0FA07D9F434
:10105200E091D203F091D303309759F4A4E5B3E0C1
:10106200DADE5E9AE1E0F0E0E093D203F093D3039C
:1010720009C0A5E6B3E0CFDEE0E0E093D203E0935F
:10108200D3035E981EC0E433A0E0FA07F1F4E091C6
:10109200D403F091D503309759F4A4E7B3E0BBDE53
:1010A2005F9AE1E0F0E0E093D403F093D50309C046
:1010B200A5E8B3E0B0DEE0E0E093D403E093D5032B
:1010C2005F98E4E6FCE00E94FE0E32C0A091DE03CF
:1010D200AF3471F5E0E0E093D803E093D903E4E0A4
:1010E200F0E0E093DC03F093DD0328982A985E9801
:1010F2005F98E4E6FCE00E94FE0EE0E0E093D60397
:10110200E093D703A091D603B091D703139784F449
:101112000E94EA0EECE3FAE00E94F50E83D1A8E801
:10112200B3E10E94880FA6EDB3E00E94050FEACF5B
:10113200A091DE03AD3471F45D9AA8E8B3E10E9498
:10114200880F5D98ACEDB3E0ED91FD913197FE9380
:10115200EE9304C0E4E6FCE00E94FE0EA091D803E8
:10116200B091D903119709F049C0A091DA03B09167
:10117200DB03119731F4A091DC03B091DD031497E6
:1011820009F01AC00E94EA0EE0E4F8E0FA93EA934A
:10119200A0E00E94A80C289A0E940B0F2A9A0E9493
:1011A2000B0F5E9A0E940B0F5F9A0E940B0FE0E0FA
:1011B200E093DA03E093DB030E94EA0EE4E4F6E054
:1011C200FA93EA93A0E00E94A80CE091DC03F0916C
:1011D200DD03E330A0E0FA0711F45F980FC0E230BC
:1011E200A0E0FA0711F45E9809C0E130A0E0FA0726
:1011F20011F42A9803C0309709F4289835990DC044
:10120200A4E9B3E008DEE1E0F0E0E093DA03F09372
:10121200DB03E093D803F093D903359BFECF3499D7
:1012220003C0AAE9B3E0F7DD349BFECF339903C0D4
:10123200A0EAB3E0F0DD339BFECF329903C0A6EA09
:10124200B3E0E9DD329BFECF61CEFFCF0895AA93D2
:101252000A935A9808E0FADFE981E07811F02B9AB4
:1012620001C02B98E981EE0FE983F0DF2D9AEEDFC2
:101272002D98015081F75A9A08810C94820EAA93F4
:101282005C98A881E4DF0C94EB0CAA935C9AA88189
:10129200DEDF0C94EB0CAA930A93E981E695E695BE
:1012A200E6950E2FE4E5E09FF001DF01EA81F0E030
:1012B200EA0FFB1FE093DF03F093E003E02F0881C6
:1012C2000C94C90EAA93E981E068AE2FD8DFE981B8
:1012D200EA93A981E0DFE064AE2FD1DF0C94820EA5
:1012E200AA93E981EA93A981EDDFE091DF03F0910E
:1012F200E003EF51FC4FE0810C94820EAA930E940E
:101302000F0F3197EF51FC4FA881A083BEDF0C94E1
:10131200EB0CBA93AA930E94FE0F529A5A9A259AFC
:101322002D98239A549A539A5B98AAE0B0E00E94AF
:10133200880F5B9AEB81FC81309721F1E681E370A3
:101342000E2FEB81FC81E681E695E695E7701E2F74
:10135200EB81FC81E781EF772E2FAB81BC810E946C
:10136200D20FE093B003F093B10312960E94D20F12
:10137200E093C503F093C603AB81BC8114960E942F
:10138200D20F0DC000E013E022E3E0E0F0E0E093D2
:10139200B003F093B103E093C503F093C603E09367
:1013A200C703F093C803A1E26ADFE02FE460AE2F27
:1013B20066DFE12FE061AE2F62DFE22FE068AE2F41
:1013C2005EDFA0E25CDFA1E023D0E1E0E093AC03CA
:1013D200E0E0E093AD03E1E0E093B203E093B30316
:1013E200E093B403EFEFE093B503E1E0E093BC03D5
:1013F200EDEBF3E0FA93EA93EFEFEA93A8E0B0E0C3
:101402000E94500E0FD0E1E00E9405100C945E0E77
:10141200AA93E881E03011F0ECE001C0E8E0AE2FE1
:101422002EDFD8C20E94FE0F20E0E091AD03E03033
:1014320009F02FEFE0E0EA93A0E044DF08EF11E0CB
:10144200F80101501040309719F0A22F57DFF8CF62
:10145200E0E0EA93A0E0A9D20E9405100C94C90E24
:10146200AA930A93ED81EA93AD813ADF0E2FE981C7
:10147200E73011F0E83039F4EB81EA93AA810E9457
:10148200840EEB8308C0E33021F4EB81E095EB831B
:1014920002C0E03021F4EA81E0950E2302C0E2307E
:1014A20029F4EA81AB81EA230E2B0EC0E13029F444
:1014B200EA81AB81EA230E2707C0E43029F4EA81EE
:1014C200E095AB81EA2B0E23A02F18DF0881269628
:1014D2000895AA9323970E94FB0FA889A43548F484
:1014E200AF85A03330F4AE85A03019F0AD85A030C1
:1014F20009F4D5C1EE85E887A889BB27EE85F0E01F
:10150200AE0FBF1FA535E0E0BE0720F0A889E4E5D5
:10151200EA1BEE873D85AF85BB27ED85F0E0AE0F78
:10152200BF1FD19720F0AF85E0E3EA1BED87A985C5
:10153200A63009F05BC0EC85E13009F4B0C1E330BC
:1015420039F4E091C703F091C803309709F4A7C1B9
:101552001885ED85E695E695E6952E2FE32FE77043
:1015620019F4AD853A17E9F0A12FBB27E22FF0E07D
:101572000E94AA0FAA85BB850E94120F3695369546
:101582003695422F4F934F5FE32FAF91EA1748F002
:10159200012FE02F0150E03019F00E94170FF9CF10
:1015A200F1CFAE851A1711F1EE85AA85BB85F0E061
:1015B2000E94120FED85E77009F02F5F30E03F9334
:1015C2003F5FE22FAF91AE1788F40E850F930F5F46
:1015D200E12FAF91AE1718F40E94170FF7CFEE85E7
:1015E200AE81BF81F0E00E94120FE9CFEF85E77074
:1015F2002E2FED85E03009F452C1EA85FB85EE839A
:10160200FF8300E01889203009F066C0AD85A8305C
:1016120008F45DC0E985E03011F0E33009F402C05E
:10162200E73009F402C0E83009F402C0E93009F4F5
:1016320002C0EA3021F41A93A88944DE04C0E630DD
:1016420011F40E94240F0F930F5FEE85AF91AE1736
:10165200B8F5A985A63069F40E94280FFA93EA9397
:101662000E940F0F3197EF51FC4FA0810E94CB0EC9
:1016720026C0E985E93011F440E00EC0EA3011F4E9
:101682004FEF0AC00E94280F0E94310F4E2FE985AA
:10169200E73011F0E83021F40E94370F4E2F06C0D8
:1016A200E33011F4409502C0E03019F4A42FEDDDCF
:1016B20006C00E943B0FEFEFEA93AD85D1DEC3CFA8
:1016C200EF85E85FEF87ED85E850ED87DFC04D8558
:1016D20030E0E0E0ED8781C0E22FAD85AE0FA930AA
:1016E20020F43D85E0E0ED8703C0E8E0E21B3E2FF9
:1016F2002A93A32F0E94790E5E2FE985E63029F501
:101702000E94240F0F930F5FEE85AF91AE17E0F4A6
:101712000E940F0F3197EF51FC4FE081E523AE2F6E
:10172200E22F0E94A20F0E94410FE22FA52F0E94DA
:10173200A20FE095E1214E2B0E94280FFA93EA9323
:10174200A42F0E94CB0EDECF2CC0E93011F440E072
:1017520003C0EA30A9F44FEF0E94370FAE2FE22FF9
:101762000E949A0F4E2F0F930F5FEE85AF91AE1727
:1017720030F40E943B0F5A93A0E072DEF4CF11C006
:101782000F930F5FEE85AF91AE1758F40E944C0F86
:10179200AE2FE22F0E949A0FEA935A93AD8560DE34
:1017A200EFCFED85E03009F47AC0AD85A83028F49A
:1017B200ED85E31B4E2FE0E003C0422FED85E8509C
:1017C200ED8700E0EF85E85FEF87E8E0E21B3E2F60
:1017D2001889EA85FB85EE83FF83E42FF0E0E85C5D
:1017E200F34F5491E985E63029F50E94240F0F93B7
:1017F2000F5FEE85AF91AE17E0F40E940F0F3197A5
:10180200EF51FC4FE081E523AE2FE32F0E949A0FA8
:101812000E94410FE32FA52F0E949A0FE095E1212C
:101822004E2B0E94280FFA93EA93A42F0E94CB0E0C
:10183200DECF2CC0E93011F440E003C0EA30A9F455
:101842004FEF0E94370FAE2FE32F0E94A20F4E2FB1
:101852000F930F5FEE85AF91AE1730F40E943B0FEE
:101862005A93A0E0FDDDF4CF11C00F930F5FEE8518
:10187200AF91AE1758F40E944C0FAE2FE32F0E9487
:10188200A20FEA935A93AD85EBDDEFCFE885AA85E7
:10189200BB85F0E0EA0FFB1FEA87FB87AACE0E9416
:1018A2000210619608950E94590F24F0E0E0F0E0E2
:1018B2000C94820EA881B981A435E0E0BE0724F021
:1018C200E3E5F0E00C94820EE881F9810C94820E3B
:1018D2000E94590F24F0E0E0F0E00C94820EA881FF
:1018E200B981D09724F0EFE2F0E00C94820EE88107
:1018F200F9810C94820EAA930A93AA81A43518F452
:10190200A981A03338F0E0E0F0E060E070E0088107
:101912000C94C90EE981E7700E2FE981E695E695F0
:10192200E695E983003011F0EF5FE983AA81BB27D6
:1019320088279927E981FF27662777270E94B20F18
:10194200EC5FFF4F6F4F7F4F08810C94C90EAA9333
:101952000E94FD0FAC81A53000F5ED81FE8105915D
:101962000E94600F15910E94600F25910E94600FE6
:101972003591ED83FE83E885EA93E885EA930A933D
:101982002A93E1E0EA93EA85FB85FA93EA93AB8531
:10199200A0DD0A93A22FAFDF04C0E0E0F0E060E038
:1019A20070E00E94041029960895AA93A981BB278A
:1019B2007ADFE093AE03A881BB278ADFE093AF030F
:1019C2000C94820EAA93E091C000E072E1F3E881E8
:1019D200E093C60021960895BA93AA93AA81F2DFF2
:1019E200A881B9810E94050F0C94C90EBA93AA93DB
:1019F20026970E94FB0F00E0AC85BD85E0E0F0E099
:101A0200ED93FC93EA89FB893196EA8BFB8B319744
:101A1200E4913E2FE03009F415C1E02FE03039F4B3
:101A2200353211F401E002C00E94630F0AC1E130B5
:101A3200A9F4353219F40E94630F02C102E050E0AA
:101A420010E03D3211F411E0FCC03B3211F45BE2D4
:101A5200F8C0303211F450E2F4C002C0E23039F47E
:101A620040E003E0303311F41068EBC003C0E33010
:101A720009F0E7C0303310F03A3308F007C0AAE0AB
:101A82004A9F402DE32FE0534E0FDBC0E32FE33696
:101A920049F40E946A0FE889F989A481AA930E94F5
:101AA200700FCEC0E33741F40E946A0F0E94760F96
:101AB2000E94600E0E2F0AC0E03761F40E946A0F86
:101AC2000E94760F0E946C0E0E2F186012601F7714
:101AD20020E034C0E43611F0E93611F4146002C09B
:101AE200E53731F4E2E4FCE0EE83FF8305E00CC06D
:101AF200E83511F4186003C0E83709F0A1C0ECE43E
:101B0200FCE0EE83FF8304E012FF14C00E946A0F20
:101B12000E94800FAB85AA233AF4EA85FB850E94D6
:101B2200960FEA87FB875DE2503011F00F5F01C02C
:101B32001B7F04C00E946A0F0E94800F10FD11C01B
:101B4200041778F417FF08C012FF04C01B7F352F5B
:101B5200015001C030E301C030E20E94630F4150E6
:101B6200EFCF202F11FF17C02030A1F013FF06C0C6
:101B7200EE81FF813591EE83FF8305C0AE81BF8187
:101B82003D91AE83BF830E94630F403009F0415004
:101B92002150EACF4BC030E3EE81FF810E94D60F85
:101BA200E887F987EE81FF813296EE83FF83E8852D
:101BB200F985AA85BB85AE17BF0750F03F5FA885A0
:101BC200B985EA85FB85EA1BFB0BEA87FB87EFCF2A
:101BD2003A3328F013FF02C0395F01C0395D14FDAA
:101BE2001AC0313320F4A885B985119709F409C0C8
:101BF200421710F010FF01C013C030E217FF0BC0F4
:101C020030E3106112FF07C01B7F5A930E94700FCE
:101C1200403009F041500E94630F403009F04150BA
:101C22002150A885B985129708F0B5CF10FF08C0DA
:101C3200403031F04150E0E2EA930E94700FF8CF59
:101C420000E0E0CEAC85BD850E94D20F0E9402105A
:101C520064960895FF92F82E26971A930A93DE014E
:101C620014960E94920F8D01E0E0EC83ED83EE83E7
:101C7200EF83DE0118960E94920F0E94D20FFA9310
:101C8200EA931A930A93EDEEFCE0FA93EA93DE01EB
:101C92001896ACDE198108812896FF900895BA93B0
:101CA200AA93B981A881109631F0FC81EB816A81F7
:101CB20061931197E9F7EB81FC8125960895BA9318
:101CC200AA93A991B991EE27FF276D91662311F08E
:101CD2003196FBCF0895BA93AA93AA27BB27E9911D
:101CE200F9910590002011F01196FBCFFD010895A6
:101CF200AA93E881F0E0E85CF34FA491E9810E94A5
:101D02009A0F22960895AA930A93E981E73011F077
:101D1200EA3019F40091AC0309C0E93019F40091DA
:101D2200AD0304C0E830A1F40091BC03E091AD031F
:101D3200E03049F0003019F0EFEF088129C0EA8164
:101D4200E095088125C0003019F4E0E0088120C048
:101D5200EA8108811DC0BA93AA93EA81E13021F495
:101D6200E881F981E49114C0E23029F4A881B981B3
:101D72000E94DA0F0DC0E33041F4A881B981E091ED
:101D8200C503F091C603099503C0A881B981EC91FE
:101D920023960895AA93EB81E03029F4E881A98182
:101DA200BA81EC9314C0E23031F4E881A981BA819E
:101DB2000E94E60F0CC0E33051F4E981FA81FA93F4
:101DC200EA93AA81E091C703F091C803099524968A
:101DD2000895E0E0EA93EA930895E8E4F4E0FA93E0
:101DE200EA93A0E00C94A80CFA93EA93A0E00E9474
:101DF200A80CA8E8B3E10C94880FFA93EA9380E068
:101E02000E942B0E22960895ED91FD913196FE933C
:101E1200EE930895A8EBBBE00C94880FAFEDB3E00E
:101E2200F3CFEA0FFB1FEE83FF830895EC85EA935D
:101E3200EF81F8853196EF83F8873197FA93EA9329
:101E4200A0E00C94CB0E1A93A8890C944C09EC8553
:101E5200EA93EF81F8853196EF83F88731970895F9
:101E620066277727DF01CB010C94AC0E4A93AA8533
:101E72000C94840E1A931395E889EA934A93089571
:101E82004E2FEC85EA93AF81B885882799270E9467
:101E9200AC0E1E2E08951A931395E889EA93EE85E7
:101EA200EA93E985FA853196E987FA873197D8CF9F
:101EB200BA93AA93A881B9810E94F70F0895ED837E
:101EC200FE8308953A93AD85BE85EF85F88909951D
:101ED2000895E889F9893497E88BF98B0895AD85DF
:101EE200BE85EF85F88909950895A889B989149660
:101EF2000E94D20FEE83FF83AE81BF810895A8892D
:101F0200B98914960E94D20FEA87FB87089510962A
:101F120039F08AEF90E00197F1F7A8951197C9F788
:101F220008950024AF0DB01D0895F195E195F0409C
:101F32000895EE230E2EEA2F19F0EE0F0A94E9F718
:101F42000895EE230E2EEA2F19F0E6950A94E9F78A
:101F52000895FA9FF02DEB9FF00DEA9FE02DF10D11
:101F620008957A9F702D6B9F700DF89F700DE99FF9
:101F7200700D6A9F602D710DFB9F600D711DE89FB2
:101F8200600D711D8827FA9FF02D610D781FEB9F60
:101F9200F00D611D781FEA9FE02DF10D681F781F7B
:101FA2000895ED91FC91119708950590F491E02D1B
:101FB2000895F999FECFFF93FFB7F894A1BDB2BD82
:101FC200F89AE0B5FFBFFF910895F99B02C0A8956A
:101FD200FCCF9FB7F894A1BDB2BDF89A80B5E817BF
:101FE20019F0E0BDFA9AF99A9FBF089500240A16E3
:101FF2000B0608955A934A933A932A931A930A9393
:1020020008955D814C813B812A811981088108955F
:00000001FF
