:080000000C94AD000C9400000B
:100008000C9400000C9400000C9400000C94000068
:100018000C9400000C9400000C9400000C94000058
:100028000C9400000C9400000C9400000C94000048
:100038000C9400000C9400000C9400000C94000038
:100048000C9400000C9400000C9400000C94000028
:100058000C9400000C9400000C9400000C94000018
:1000680003030302020C000800010006EE01100061
:10007800DC031000E40210006E021000DC03200014
:10008800E402F0FF6E0208000B02100017041000D3
:100098002006100027051000170420002006F0FF96
:1000A80027050800EE011000DC031000E402100030
:1000B8006E021000DC032000E402F0FF6E0208006C
:1000C8006E02200093022000BA022000BA0220002B
:1000D800E402200010032000100320003F0320004A
:1000E80070031000DC0308001F00B2067505280025
:1000F80027052800DD042800970428000400B2061C
:1001080000001B1F1F0E0400000E1F151F0E000EFF
:1001180056696461732041637475616C657300008E
:100128007B000103740001007D03F00002007F03DF
:10013800F2000F008503F40001009503040102009A
:100148009703060107009D0308010800A503100195
:100158000000F894EE27EFBBF1E0F5BFE5BF8DE0B6
:10016800A2E0BB27ED938A95E9F780E098E0A0E04C
:10017800B1E0ED930197E9F7E8E2F1E08591959117
:10018800009761F0A591B59105901590BF01F00118
:1001980005900D920197E1F7FB01F0CFE0E0EEBB8F
:1001A800EFEFEDBFE8E0EEBFC0E0D3E00C94D00184
:1001B8002C978CE0A0E0B0E0E8E6F0E00E944D0566
:1001C8000A93219A209A229A239A249A259AA2E39A
:1001D800B0E00E94760300E00C3058F410D2E02F13
:1001E800F0E0DE011196AE0FBF1FAC910CD20F5F8D
:1001F800F3CFECE0E0930003A091000320D0088146
:100208002D960895299A29980895AA93E881E87067
:1002180011F02D9A01C02D98E881E47011F02C9A04
:1002280001C02C98E881E27011F02B9A01C02B983C
:10023800E881E17011F02A9A01C02A98ABC0AA930C
:100248000A932898DCD1E1D1E7D1DCDF08813FC0EF
:10025800AA930A93289AD3D1D8D1DED1D3DF0881C3
:1002680036C0BA93AA930A9300E0E02F0F5FA981E2
:10027800BA81F0E0EA0FFB1FA491EADFE02FA98121
:10028800BA81F0E0EA0FFB1FE491E03071F70881D2
:1002980023960895AA93E881F0E0309719F4A9818C
:1002A800A05814C0E130A0E0FA0719F4A981A054BD
:1002B8000DC0E230A0E0FA0719F4A981AC5606C0D7
:1002C800E330A0E0FA0719F4A981AC52B8DF22960E
:1002D8000895BA93AA930A93EB81EE0FEE0FEE0FEF
:1002E800E05CAE2FACDF00E0083048F4A981BA81A9
:1002F800EE27A00FBE1FAC91ABDF0F5FF5CFA0E8D4
:100308009EDF0881249608950E94440524971A9335
:100318000A93569AE2E4E4BDE2E0E5BDEE81FF818E
:1003280068857985A0E0B4E284E797E40E94B70481
:10033800EA83FB836C837D83A0E0B0E080E09FE3E9
:100348000E9419040E94AD038F01E150E7BD198195
:1003580008812A960895E0E0E4BDE5BD5E98089519
:10036800AA93E881E064E0937C0083E08A95F1F742
:10037800E0917A00E064E0937A00E0917A00E0711D
:10038800E1F3E0917A00E061E0937A00E09178008F
:10039800F091790021960895E3E0E0937E00E0E48F
:1003A800E0937C00E3E8E0937A00E0E0E0937B00F0
:1003B800EFE0EAB9559A0E94DC00E1E0EA93A0E098
:1003C80069DFA8E1B1E04DDF429A439A449A459A21
:1003D8005C9AE0E0EA93A5EAB3E07BDFE1E0EA9328
:1003E800ADE9B3E076DFE0E0E093B103E093B20378
:1003F800E0917D03F0917E03EE0FFF1FA091B10302
:10040800B091B203AE17BF070CF040C0AA0FBB1FD4
:10041800AD5FBC4F0E944005E0938103F0938203D7
:10042800A0918103B09182030E9449051CF4FAD07F
:10043800FED017C0A0918203AA239AF4F3D0AFEF9D
:10044800BFEF0E941505E0938103F0938203EAD081
:10045800EED0F8D000D1A3E8B3E00E94AF03ED934B
:10046800FC93E091B103F091B203A1E0B3E0FAD0BC
:10047800E9D005D1E7D00FD1E091B103F091B203F3
:100488003296E093B103F093B203B2CFA1E068DFF4
:10049800E093AD03F093AE03A0E062DFE093AF0317
:1004A800F093B003A091AD03B091AE03A83CE0E097
:1004B800BE0710F45B9A0CC0A091AD03B091AE03D7
:1004C800A132E3E0BE0718F05B98599A02C05B9826
:1004D8005998A091AF03B091B003A83CE0E0BE07E3
:1004E80010F4589A0CC0A091AF03B091B003A13298
:1004F800E3E0BE0718F058985A9A02C058985A98DC
:10050800359904C0E6E0D2D0A0E003C0E6E0CED042
:10051800A1E09EDE349904C0E7E0C8D0A0E003C0A3
:10052800E7E0C4D0A1E094DE339904C0E8E0BED08F
:10053800A0E003C0E8E0BAD0A1E08ADE329904C0A6
:10054800E9E0B4D0A0E003C0E9E0B0D0A1E080DEEB
:100558004C9953C0E0E0E093B303E093B403E09117
:100568009503F0919603EE0FFF1FA091B303B0918E
:10057800B403AE17BF070CF040C0AA0FBB1FA957A2
:10058800BC4F0E944005E0939903F0939A03A09111
:100598009903B0919A030E9449051CF48AD08ED021
:1005A80017C0A0919A03AA239AF483D0AFEFBFEFA4
:1005B8000E941505E0939903F0939A037AD07ED0B0
:1005C80088D049D0ABE9B3E00E94AF03ED93FC9328
:1005D800E091B303F091B403A5E8B3E043D079D038
:1005E8004ED077D058D0E091B303F091B40332964F
:1005F800E093B303F093B403B2CF48CFFFCFA2E0A8
:10060800B0E00C94760301DEFDCDE981E07F0E2F8A
:1006180002950F70A02FF7CFE981EF700E2FA02F52
:10062800F4DDEDCFE0918103F09182030895A0916C
:100638007F03B09180030E942D05E0938303F0931C
:1006480084030895E0918303F09184030E940805D0
:100658000E94E6030895A0E0B0E080EC9FE30E94CA
:1006680069040895EE0FFF1FAE0FBF1F0E944005DB
:100678000E9408050E94E603DF01CB0145CEA6E6ED
:10068800B6E686E69FE30E9469040E94AD03DF0197
:100698000E94760360CEADECBCEC8CEC9DE30E942E
:1006A80069040E94AD03DF010C947603EA93A1E08C
:1006B800F1CDE0919903F0919A030895A0919703E1
:1006C800B09198030E942D05E0939B03F0939C033F
:1006D8000895E0919B03F0919C030E9408050E94F5
:1006E800E6030895109639F08AEF90E00197F1F744
:1006F800A8951197C9F70895552342F4503811F475
:10070800E0FF04C03196691F791F6BF050E8572746
:1007180011F45F93C8C05F3F31F0660F000C579526
:100728006795752F08955F9300200AF0C8C0C1C06F
:1007380050E8192E1522880F991F9527550F879570
:1007480050E8072E0522660F771F7527550F679506
:100758000895689401C0E8945F93F2DF703818F048
:100768007F3F08F4A0C056E1571BAAF451955830B2
:100778000EF4593030F0EFEFFFEF6FEF7FE777F9C6
:100788001AC077275523B9F0EE0FFF1F661F771F92
:100798005A95D1F710C07727583028F0EF2FF62F49
:1007A800672F5850F9CF552331F076956795F7950F
:1007B800E7955A95D1F700200AF41ED15F91089564
:1007C800689401C0E894309760407040B1F000240C
:1007D80026F0772312F400940FD1172E7EE1112012
:1007E80032F07A95EE0FFF1F661F111CF9CFEF2F1D
:1007F800F62F612D5F938ADF5F9108954F93AF01C4
:10080800FD01DA01AB01BC01CA01402D012C142EF7
:100818004F910895EA0FFB1F681F0895E095F09522
:100828006095EF5FFF4F6F4F08955F9381DF9038BA
:1008380039F1703821F1572F591B2BF112F4DEDFF3
:10084800FACF583118F0AA27BB278827583028F044
:10085800AB2FB82F88275850F9CF552329F0869504
:10086800B795A7955A95D9F7502D512572F0D2DF33
:1008780038F46795F795E795739513F420C0BEDFB4
:1008880045DF5F910895D8F7FBCFEA1BFB0B680B98
:1008980051F010F40094C2DF662392F3EE0FFF1FAD
:1008A800661F7A95CBF7EE27FF27662777275F9194
:1008B8000895EFEFFFEF6FE77FEF5F910895EFEF98
:1008C800FFEF6FE77FE75F9108955F9331DF70383F
:1008D80051F3903841F301240894791F23F41CF351
:1008E80000203AF3ECCF0F921F932F933F934F932F
:1008F800112722279927689FA0018F9F302D410D2E
:10090800591F6B9F300D411D591F8E9F27D0BF9FC8
:1009180025D06A9F23D0BE9F1DD0AF9F1BD0AE9F0E
:10092800110D291F391F491F591FE32FF42F652F58
:10093800522F4F913F912F911F910F9066232AF0CC
:10094800550FEE1FFF1F661F02C073954BF2D4DED2
:100958005F910895100D211D391F02C0200D311D12
:10096800491F591F08955F93E3DE703821F4112061
:100978000AF49FCFA4CF903809F495CF01240894A6
:10098800970B1BF4D4F30020F3CF792F1F932F93E9
:100998003F934F93112411272227332744275527A4
:1009A80090E2AE17BF078607410730F0AE1BBF0BBA
:1009B800860B410B089401C08894551F221F331FD2
:1009C800111CAA1FBB1F881F441F9A9551F7F901D4
:1009D800612D4F913F912F911F91662332F0550F52
:1009E800EE1FFF1F661F7A9543F286DE5F9108951A
:1009F800F195E195F0400895F09560957095E19531
:100A0800FF4F6F4F7F4F08956F2F660F660B762F3E
:100A18000895FA9FF02DEB9FF00DEA9FE02DF10D60
:100A280008951CD0F6DF0EF4E3DF089500241124A6
:100A380090E1AA0FBB1F001C111C0E1A1F0A18F404
:100A48000E0E1F1E01C0A1609A9599F7FD01D001F5
:100A5800089504D0EBDF0EF4CBDF0895E894F7FF98
:100A680002C0C6DF6894B7FF06C0A095B09511967E
:100A780000F8039400FA0895ED91FC9111970895F8
:100A88009A938A93BA93AA93089500240A160B0698
:100A98000895AC0FBD1F05900D928A95E1F7089552
:00000001FF
